:1000000025C034C033C032C031C030C02FC02EC074
:100010002DC02CC02BC056C529C028C02AC526C05B
:1000200025C024C023C022C021C020C01FC01EC0C4
:100030001DC01CC048C04CC05CC08CC0CCC02CC112
:100040008CC10CC2ACC24CC3DCC32CC411241FBE77
:10005000CFEFD2E0DEBFCDBF11E0A0E0B1E001C044
:100060001D92AB38B107E1F75CD5CBC5C9CFE5E050
:10007000F1E0918380839383828395838483978344
:1000800086839187808793878287958784879787E0
:100090008687709621E0E538F20759F708959B01AD
:1000A00023533343AB0146565646FB01E959F94900
:1000B00090E001978C30910508F014C4865E9F4F44
:1000C0008F939F93089570934C0160934B01089513
:1000D00070934C0160934B0170933C0160933B0122
:1000E00070933E0160933D0170934E0160934D010A
:1000F000089570935C0160935B0170935E0160935F
:100100005D0170932C0160932B0170932E0160931D
:100110002D017093400160933F01709350016093F3
:100120004F0170933A016093390170934A016093D3
:10013000490130933C0120933B0130933E012093D1
:100140003D0130934C0120934B0130934E0120939D
:100150004D01089570932A016093290170935A010B
:10016000609359017093300160932F017093600187
:1001700060935F0130935C0120935B0130935E01DB
:1001800020935D0130932C0120932B0130932E019D
:1001900020932D013093400120933F013093500173
:1001A00020934F0130933A012093390130934A0153
:1001B0002093490150933C0140933B0150933E01F1
:1001C00040933D0150934C0140934B0150934E019D
:1001D00040934D01089570931C0160931B0170932F
:1001E0001E0160931D017093380160933701709375
:1001F00048016093470170936C0160936B017093A9
:100200006E0160936D0170934201609341017093A0
:1002100052016093510130932A01209329013093B8
:100220005A01209359013093300120932F013093CC
:10023000600120935F0150935C0140935B015093F8
:100240005E0140935D0150932C0140932B0150932C
:100250002E0140932D015093400140933F01509354
:10026000500140934F0150933A014093390150930C
:100270004A0140934901F0933C01E0933B01F09324
:100280003E01E0933D01F0934C01E0934B01F0936C
:100290004E01E0934D01089570931801609317018A
:1002A00070936801609367017093720160937101AC
:1002B000709322016093210130931C0120931B0154
:1002C00030931E0120931D01309338012093370194
:1002D000309348012093470130936C0120936B01C8
:1002E00030936E0120936D013093420120934101C0
:1002F000309352012093510150932A0140932901D8
:1003000050935A01409359015093300140932F016B
:100310005093600140935F01F0935C01E0935B01B7
:10032000F0935E01E0935D01F0932C01E0932B01CB
:10033000F0932E01E0932D01F0934001E0933F01F3
:10034000F0935001E0934F01F0933A01E0933901AB
:10035000F0934A01E0934901089570930A01609374
:1003600009017093100160930F017093260160934F
:1003700025017093340160933301709356016093AB
:100380005501709364016093630170937A016093E7
:1003900079017093800160937F0170931A016093DB
:1003A00019017093200160931F01709328016093DD
:1003B000270170933201609331017093580160936B
:1003C0005701709362016093610170936A016093B9
:1003D00069017093700160936F013093180120934D
:1003E00017013093680120936701309372012093C5
:1003F0007101309322012093210150931C014093FD
:100400001B0150931E0140931D01509338014093EE
:100410003701509348014093470150936C0140933A
:100420006B0150936E0140936D01509342014093D4
:1004300041015093520140935101F0932A01E093FE
:100440002901F0935A01E0935901F0933001E093B0
:100450002F01F0936001E0935F010895709306010E
:100460006093050170930801609307017093120176
:10047000609311017093140160931301709316013E
:10048000609315017093240160932301709384019C
:10049000609383017093820160938101709378016E
:1004A0006093770170937601609375017093740186
:1004B00060937301709366016093650130930A0144
:1004C000209309013093100120930F0130932601EE
:1004D000209325013093340120933301309356014A
:1004E00020935501309364012093630130937A0186
:1004F000209379013093800120937F0130931A017A
:10050000209319013093200120931F01309328017B
:100510002093270130933201209331013093580109
:1005200020935701309362012093610130936A0157
:10053000209369013093700120936F01509318014B
:1005400040931701509368014093670150937201E3
:10055000409371015093220140932101F0931C01BB
:10056000E0931B01F0931E01E0931D01F09338010D
:10057000E0933701F0934801E0934701F0936C0159
:10058000E0936B01F0936E01E0936D01F0934201F3
:10059000E0934101F0935201E0935101089570936B
:1005A0000C0160930B0170930E0160930D01709329
:1005B0003601609335017093440160934301709359
:1005C0004601609345017093540160935301709309
:1005D0007C0160937B0170937E0160937D01309379
:1005E0000601209305013093080120930701309301
:1005F00012012093110130931401209313013093C1
:100600001601209315013093240120932301309388
:1006100084012093830130938201209381013093E0
:100620007801209377013093760120937501309300
:1006300074012093730130936601209365015093F8
:100640000A01409309015093100140930F01509308
:100650002601409325015093340140933301509378
:1006600056014093550150936401409363015093A8
:100670007A01409379015093800140937F01509318
:100680001A01409319015093200140931F01509388
:100690002801409327015093320140933101509338
:1006A0005801409357015093620140936101509368
:1006B0006A01409369015093700140936F01F09378
:1006C0001801E0931701F0936801E0936701F0933C
:1006D0007201E0937101F0932201E09321010895EA
:1006E00070930C0160930B0170930E0160930D01E8
:1006F0007093360160933501709344016093430118
:1007000070934601609345017093540160935301C7
:1007100070937C0160937B0170937E0160937D01F7
:1007200030930601209305013093080120930701BF
:10073000309312012093110130931401209313017F
:100740003093160120931501309324012093230147
:10075000309384012093830130938201209381019F
:1007600030937801209377013093760120937501BF
:1007700030937401209373013093660120936501D7
:1007800050930A01409309015093100140930F01C7
:100790005093260140932501509334014093330137
:1007A0005093560140935501509364014093630167
:1007B00050937A01409379015093800140937F01D7
:1007C00050931A01409319015093200140931F0147
:1007D00050932801409327015093320140933101F7
:1007E0005093580140935701509362014093610127
:1007F00050936A01409369015093700140936F01D7
:10080000089570930C0160930B0170930E01609337
:100810000D0170933601609335017093440160932C
:1008200043017093460160934501709354016093B6
:10083000530170937C0160937B0170937E01609300
:100840007D01309306012093050130930801209328
:10085000070130931201209311013093140120936A
:100860001301309316012093150130932401209336
:1008700023013093840120938301309382012093DC
:100880008101309378012093770130937601209392
:1008900075013093740120937301309366012093A6
:1008A0006501089570930C0160930B0170930E0124
:1008B00060930D017093360160933501709344018C
:1008C0006093430170934601609345017093540116
:1008D0006093530170937C0160937B0170937E0160
:1008E00060937D010895E0918801F091890165E0B0
:1008F00071E020E030E01DC02730310541F02115C6
:10090000310529F08730910511F0009729F4DB01BA
:10091000A40FB51FED93FC930196405F5F4F8830A5
:10092000910551F72F5F3F4F6E5F7F4F28303105A4
:1009300029F040E050E080E090E0DECF0895809123
:1009400000018C3019F41092000103C08F5F809376
:1009500000016091880170918901809100019FCB15
:100960009091040180910301913041F4873021F48A
:100970001092040185E00AC08F5F08C0811105C094
:1009800081E08093040182E001C0815080930301E3
:100990009091010180918501913041F4873021F4DB
:1009A0001092010186E009C08F5F07C0811104C069
:1009B00081E08093010101C081508093850193DF24
:1009C00080910301E091850198E0E99FF0011124F5
:1009D000E80FF11DEE0FFF1FEB5FFE4F8FEF90E072
:1009E000918380830895F89414BC15BCEEE6F0E082
:1009F000108216BC8FEF87BD80818260808385B5B1
:100A00008D6085BD78940895F89410928000E1E897
:100A1000F0E01082AFE6B0E01C92109285001092D8
:100A200084008FEF9FE090938900809388008C91E1
:100A300082608C9380818C6080837894089580E0BC
:100A400090E015DB81E08093020180930301109216
:100A500085011092040110920101109289011092F7
:100A60008801109287011092860110920001BBDF6D
:100A7000CBCF1F920F920FB60F9211248F939F939B
:100A800080918601909187018230910579F480915F
:100A9000880190918901895F9A4F90938901809391
:100AA0008801109287011092860105C001969093EB
:100AB0008701809386019F918F910F900FBE0F90B9
:100AC0001F9018951F920F920FB60F9211242F931B
:100AD0003F934F935F936F937F938F939F93AF93C6
:100AE000BF93EF93FF9380E090E0C1DA8091020121
:100AF000882319F0813021F402C032DF01C01FDFEA
:100B0000FF91EF91BF91AF919F918F917F916F91E5
:100B10005F914F913F912F910F900FBE0F901F90BB
:100B200018958DDF8FEF84B98AB987B915B818B8D1
:100B30001BB81BB810928A0110E000E2E1E0F0E07F
:100B4000FF24F394459808B9612F70E09B0144E0BD
:100B5000220F331F4A95E1F72B5F3E4F80E090E074
:100B6000D901A80FB91F1E964D915C911F9755276B
:100B7000A0918A01B0E04A175B0710F0409A01C0CB
:100B80004098419A41980297803F4FEF940741F770
:100B90009B0194E0220F331F9A95E1F72B5F3E4FA4
:100BA00080E090E0D901A80FB91F1F964C91C42F87
:100BB00040E0D42F40918A0150E0C417D50710F0CF
:100BC000409A01C04098419A41980297803F4FEF68
:100BD000940741F71BB8429A4298CF0102C0880F90
:100BE000991F6A95E2F78BB91F5F177080918A0190
:100BF0008F3F19F4F0928A01A5CF8F5F80938A010D
:060C0000A1CFF894FFCF24
:00000001FF
