:1000000025C03FC03EC03DC03CC03BC03AC039C027
:1000100038C037C036C0BCC534C033C090C531C04D
:1000200030C02FC02EC02DC02CC02BC02AC029C06C
:1000300028C027C053C057C067C097C0D7C037C1BA
:1000400097C117C2B7C257C3E7C337C411241FBE35
:10005000CFEFD2E0DEBFCDBF11E0A0E0B1E0E6E639
:10006000FDE002C005900D92A03EB107D9F712E065
:10007000A0EEB1E001C01D92AE36B107E1F7CED5DA
:1000800070C6BECFE7EEF1E09183808393838283D5
:1000900095838483978386839187808793878287DC
:1000A0009587848797878687709622E0E736F207E0
:1000B00059F708959B0123533343AB0146565646E7
:1000C000FB01E959F94990E001978C30910508F05E
:1000D00014C4865E9F4F8F939F93089570932E0252
:1000E00060932D02089570932E0260932D027093F9
:1000F0001E0260931D027093200260931F02709392
:10010000300260932F02089570933E0260933D0287
:100110007093400260933F0270930E0260930D0251
:100120007093100260930F02709322026093210279
:10013000709332026093310270931C0260931B0231
:1001400070932C0260932B0230931E0220931D02A9
:100150003093200220931F0230932E0220932D0211
:100160003093300220932F02089570930C02609315
:100170000B0270933C0260933B02709312026093F7
:100180001102709342026093410230933E02209329
:100190003D023093400220933F0230930E022093A1
:1001A0000D023093100220930F023093220220930D
:1001B0002102309332022093310230931C022093AB
:1001C0001B0230932C0220932B0250931E0240936B
:1001D0001D025093200240931F0250932E02409321
:1001E0002D025093300240932F0208957093FE0128
:1001F0006093FD01709300026093FF0170931A02F7
:100200006093190270932A026093290270934E0240
:1002100060934D027093500260934F0270932402DA
:1002200060932302709334026093330230930C0284
:1002300020930B0230933C0220933B023093120236
:1002400020931102309342022093410250933E02C8
:1002500040933D025093400240933F0250930E0260
:1002600040930D025093100240930F0250932202CC
:1002700040932102509332024093310250931C026A
:1002800040931B0250932C0240932B02F0931E02CA
:10029000E0931D02F0932002E0931F02F0932E02E0
:1002A000E0932D02F0933002E0932F0208957093B3
:1002B000FA016093F90170934A02609349027093C6
:1002C00054026093530270930402609303023093CC
:1002D000FE012093FD01309300022093FF01309333
:1002E0001A022093190230932A0220932902309394
:1002F0004E0220934D023093500220934F023093D0
:10030000240220932302309334022093330250932B
:100310000C0240930B0250933C0240933B025093DB
:100320001202409311025093420240934102F09313
:100330003E02E0933D02F0934002E0933F02F093CF
:100340000E02E0930D02F0931002E0930F02F0937F
:100350002202E0932102F0933202E0933102F09303
:100360001C02E0931B02F0932C02E0932B020895F1
:100370007093EC016093EB017093F2016093F101D3
:10038000709308026093070270931602609315023F
:10039000709338026093370270934602609345026F
:1003A00070935C0260935B027093620260936102DF
:1003B0007093FC016093FB01709302026093010251
:1003C00070930A02609309027093140260931302FF
:1003D00070933A026093390270934402609343022F
:1003E00070934C0260934B027093520260935102DF
:1003F0003093FA012093F90130934A022093490285
:10040000309354022093530230930402209303024A
:100410005093FE014093FD01509300024093FF0171
:1004200050931A024093190250932A0240932902D2
:1004300050934E0240934D025093500240934F020E
:10044000509324024093230250933402409333028A
:10045000F0930C02E0930B02F0933C02E0933B021A
:10046000F0931202E0931102F0934202E0934102F2
:1004700008957093E8016093E7017093EA01609337
:10048000E9017093F4016093F3017093F6016093B6
:10049000F5017093F8016093F70170930602609381
:1004A0000502709366026093650270936402609324
:1004B000630270935A0260935902709358026093DA
:1004C00057027093560260935502709348026093EE
:1004D00047023093EC012093EB013093F20120931B
:1004E000F101309308022093070230931602209303
:1004F000150230933802209337023093460220933E
:10050000450230935C0220935B0230936202209399
:1005100061023093FC012093FB013093020220938F
:10052000010230930A0220930902309314022093AF
:10053000130230933A0220933902309344022093FD
:10054000430230934C0220934B023093520220938B
:1005500051025093FA014093F90150934A0240939B
:100560004902509354024093530250930402409323
:100570000302F093FE01E093FD01F0930002E0938B
:10058000FF01F0931A02E0931902F0932A02E0931C
:100590002902F0934E02E0934D02F0935002E09353
:1005A0004F02F0932402E0932302F0933402E0938D
:1005B000330208957093EE016093ED017093F001A2
:1005C0006093EF01709318026093170270932602F4
:1005D000609325027093280260932702709336027D
:1005E0006093350270935E0260935D0270936002C7
:1005F00060935F023093E8012093E7013093EA01B2
:100600002093E9013093F4012093F3013093F60134
:100610002093F5013093F8012093F70130930602FF
:1006200020930502309366022093650230936402A2
:100630002093630230935A02209359023093580258
:10064000209357023093560220935502309348026C
:10065000209347025093EC014093EB015093F20139
:100660004093F10150930802409307025093160201
:10067000409315025093380240933702509346023C
:100680004093450250935C0240935B025093620298
:10069000409361025093FC014093FB01509302028E
:1006A0004093010250930A024093090250931402AE
:1006B0004093130250933A024093390250934402FC
:1006C0004093430250934C0240934B02509352028A
:1006D00040935102F093FA01E093F901F0934A023A
:1006E000E0934902F0935402E0935302F093040222
:1006F000E093030208957093EE016093ED0170930F
:10070000F0016093EF0170931802609317027093E9
:10071000260260932502709328026093270270934B
:1007200036026093350270935E0260935D027093AF
:10073000600260935F023093E8012093E7013093F9
:10074000EA012093E9013093F4012093F3013093FF
:10075000F6012093F5013093F8012093F7013093CF
:1007600006022093050230936602209365023093BF
:1007700064022093630230935A022093590230930B
:10078000580220935702309356022093550230931B
:100790004802209347025093EC014093EB015093A1
:1007A000F2014093F10150930802409307025093E5
:1007B000160240931502509338024093370250932B
:1007C00046024093450250935C0240935B02509373
:1007D0006202409361025093FC014093FB015093ED
:1007E00002024093010250930A024093090250937F
:1007F00014024093130250933A02409339025093EB
:1008000044024093430250934C0240934B02509356
:1008100052024093510208957093EE016093ED01EE
:100820007093F0016093EF017093180260931702C8
:10083000709326026093250270932802609327022A
:10084000709336026093350270935E0260935D028E
:100850007093600260935F023093E8012093E70198
:100860003093EA012093E9013093F4012093F301DE
:100870003093F6012093F5013093F8012093F701AE
:10088000309306022093050230936602209365029E
:10089000309364022093630230935A0220935902EA
:1008A00030935802209357023093560220935502FA
:1008B000309348022093470208957093EE016093AD
:1008C000ED017093F0016093EF0170931802609353
:1008D000170270932602609325027093280260939A
:1008E0002702709336026093350270935E02609324
:1008F0005D027093600260935F020895E0916B0265
:10090000F0916C0267EE71E020E030E01DC027300E
:10091000310541F02115310529F08730910511F09D
:10092000009729F4DB01A40FB51FED93FC9301960A
:10093000405F5F4F8830910551F72F5F3F4F6E5FEB
:100940007F4F2830310529F040E050E080E090E012
:10095000DECF08958091E0018C3019F41092E0010F
:1009600003C08F5F8093E00160916B0270916C0215
:100970008091E0019FCB8F929F92AF92BF92CF92D6
:10098000DF92EF92FF920F931F93CF93DF9300912B
:100990006B0210916C02B09067028B2C912C740149
:1009A00087E0E80EF11C9CE1A92E14C06A01C20E7A
:1009B000D31EE6018881813031F46D01CE0EDF1E39
:1009C000E60119830883245E3F4F7096203E31056F
:1009D00069F7B394AB2DB0E0EA16FB0684F08B2DDB
:1009E0006A2D8CD1AA0FBB1FA951BE4FE0E0F0E0E9
:1009F00020E030E0492F50E040505F4FD7CFC40196
:100A000001966CE170E086D180936702DF91CF910F
:100A10001F910F91FF90EF90DF90CF90BF90AF901C
:100A20009F908F9008959091E4018091E30191301F
:100A300041F4873021F41092E40185E00AC08F5F11
:100A400008C0811105C081E08093E40182E001C00B
:100A500081508093E3019091E1018091680291308F
:100A600041F4873021F41092E10186E009C08F5FE4
:100A700007C0811104C081E08093E10101C0815071
:100A8000809368023BDF8091E301E091680298E087
:100A9000E99FF0011124E80FF11DEE0FFF1FE9514E
:100AA000FE4F8FEF90E0918380830895F89414BCFB
:100AB00015BCEEE6F0E0108216BC8FEF87BD80819A
:100AC0008260808385B58D6085BD78940895F894A3
:100AD00010928000E1E8F0E01082AFE6B0E01C92F6
:100AE00010928500109284008FEF9FE09093890010
:100AF000809388008C9182608C9380818C6080834D
:100B00007894089580E090E0BDDA82E08093E2017D
:100B100081E08093E301109268021092E401109248
:100B2000E10110926C0210926B0210926A02109214
:100B300069021092E00110926702B8DFC8CF1F92DD
:100B40000F920FB60F9211248F939F938091690299
:100B500090916A028230910579F480916B029091B4
:100B60006C02895F9A4F90936C0280936B02109293
:100B70006A021092690205C0019690936A028093FE
:100B800069029F918F910F900FBE0F901F90189543
:100B90001F920F920FB60F9211242F933F934F93F2
:100BA0005F936F937F938F939F93AF93BF93EF93D5
:100BB000FF9380E090E066DA8091E201823031F0CC
:100BC000833031F0811105C02EDF03C0D4DE01C0B7
:100BD000C1DE8091E5019091E60101969093E601D6
:100BE0008093E5018F3F910541F48091E20190E00F
:100BF0000196837099278093E201FF91EF91BF9155
:100C0000AF919F918F917F916F915F914F913F91A4
:100C10002F910F900FBE0F901F90189573DF8FEFDD
:100C200084B98AB987B915B818B81BB81BB810921F
:100C30006D0210E000E2E1E0F0E0FF24F39445985B
:100C400008B9612F70E09B0154E0220F331F5A95C1
:100C5000E1F729513E4F80E090E0D901A80FB91F7C
:100C60001E964D915C911F975527A0916D02B0E0A3
:100C70004A175B0710F0409A01C04098419A41988A
:100C80000297803F4FEF940741F79B0144E0220F0A
:100C9000331F4A95E1F729513E4F80E090E0D9019A
:100CA000A80FB91F1F964C91C42F40E0D42F40913C
:100CB0006D0250E0C417D50710F0409A01C040986B
:100CC000419A41980297803F4FEF940741F71BB834
:100CD000429A4298CF0102C0880F991F6A95E2F7A5
:100CE0008BB91F5F177080916D028F3F19F4F092DE
:100CF0006D02A5CF8F5F80936D02A1CF991B79E024
:100D000004C0991F961708F0961B881F7A95C9F79B
:100D10008095089597FB072E16F4009406D077FD72
:100D200008D00BD007FC05D03EF4909581959F4FDD
:100D30000895709561957F4F0895AA1BBB1B51E1E3
:100D400007C0AA1FBB1FA617B70710F0A61BB70B3B
:100D5000881F991F5A95A9F780959095BC01CD01E0
:060D60000895F894FFCF96
:100D66000101010100000000000000000000000079
:100D7600000000000000000000000000000000006D
:100D8600010100000000000000000000000000005B
:100D96000000000000000101000000000000010149
:100DA600000000000000000000000000000000003D
:100DB600010100000000000000000000010000002A
:100DC600000000000000000000000001000000001C
:100DD600000000000000000000010000000000000C
:100DE60000000000000001000000000000000000FC
:100DF60000000000000001010000000000000000EB
:100E060001010000000000000000000000000000DA
:100E160000000000010100000000010100000000C8
:100E260000000000000000000000000000000000BC
:100E360000000101010100000000000000000000A8
:00000001FF
