:1000000019C033C032C031C030C02FC02EC02DC087
:100010002CC02BC02AC050C228C027C024C225C073
:1000200024C023C022C021C020C01FC01EC01DC0CC
:100030001CC01BC011241FBECFEFD2E0DEBFCDBF5E
:1000400011E0A0E0B1E0E4ECF6E002C005900D9212
:10005000A839B107D9F712E0A8E9B1E001C01D92B3
:10006000AC32B107E1F799D22BC3CACFE6EAF1E08F
:10007000918380839383828395838483978386830C
:1000800091878087938782879587848797878687DC
:10009000709622E0E632F20759F70895EF92FF9248
:1000A0000F931F93CF93DF93A6EAB1E040E050E0B7
:1000B000EE24E394F12C16C0C191D0E0C023D123EB
:1000C000CD2B29F0ED01C20FD31F79836883205F08
:1000D0003F4F2038310581F74F5F5F4F1296483010
:1000E000510559F08701042E02C0000F111F0A9418
:1000F000E2F7FC0120E030E0DFCFDF91CF911F91EC
:100100000F91FF90EF900895CF92DF92EF92FF92C0
:100110000F931F93CF93DF938B01C0E0D0E0C82EE5
:10012000D12C4BE0E42EF12CCE018C0D9D1DB7019E
:10013000A0D233E0880F991F3A95E1F7B801885EA5
:100140009E4FACDF219603531343C430D10561F7B2
:10015000DF91CF911F910F91FF90EF90DF90CF90A3
:100160000895E0912902F0912A0266EA71E020E008
:1001700030E01DC02730310541F02115310529F04F
:100180008730910511F0009729F4DB01A40FB51F0A
:10019000ED93FC930196405F5F4F8830910551F7D6
:1001A0002F5F3F4F6E5F7F4F2830310529F040E0D1
:1001B00050E080E090E0DECF08958091A5018A3084
:1001C00019F41092A50103C08F5F8093A50160917F
:1001D000290270912A028091A50196CF2F923F9219
:1001E0004F925F926F927F928F929F92AF92BF9247
:1001F000CF92DF92EF92FF920F931F93CF93DF93F3
:10020000A090A501B12C4090290250902A02C6EA84
:10021000D1E0212C312C35015CE1852E912C01E0BF
:1002200010E020E030E020C0FC014191519161914B
:100230007191CF014C215D216E217F21452B462BF1
:10024000472B31F0AE014A0F5B1FFA015182408209
:100250005096A038B10541F7FFEF2F1A3F0A2296BA
:1002600088E02816310499F0C101860D971DB4016C
:1002700000D26801790104C0CC0CDD1CEE1CFF1C0F
:100280008A95D2F780E791E0A0E0B0E0CDCFC5013C
:1002900001966CE170E0EDD18093A501DF91CF91E3
:1002A0001F910F91FF90EF90DF90CF90BF90AF9094
:1002B0009F908F907F906F905F904F903F902F9086
:1002C00008956091290270912A0280E991E0E6CEBA
:1002D0006FEF70E080E091E0E1DE60E170E188E0E6
:1002E00091E0DCDE6091290270912A0280E191E0C8
:1002F000D5CE90919D0180919C01913041F4873041
:1003000021F410929D0185E00AC08F5F08C0811121
:1003100005C081E080939D0182E001C081508093FF
:100320009C0190919A0180912602913041F487308E
:1003300021F410929A0186E009C08F5F07C08111F5
:1003400004C081E080939A0101C08150809326020D
:1003500008DF80919C01E091260298E0E99FF0017E
:100360001124E80FF11DEE0FFF1FEA55FE4F8FEF2E
:1003700090E0918380830895F8948FEF92E09093BA
:1003800089008093880010928500109284007894F0
:1003900080E092E090939901809398010895F894F9
:1003A00082E292E190938900809388001092850008
:1003B0001092840078948FEF90E09093990180934D
:1003C00098010895F89414BC15BCEEE6F0E0108294
:1003D00016BC8FEF87BD80818260808385B58D607C
:1003E00085BD78940895F89410928000E1E8F0E0DB
:1003F0001082AFE6B0E01C9210928500109284004B
:100400008FEF9FE090938900809388008C918260A9
:100410008C9380818C6080837894089580E090E054
:1004200025DE8FEF90E0909399018093980183E00F
:1004300080939B0110929F0110929E011092A50142
:1004400081E080939C011092260210929D011092EF
:100450009A0110922A0210922902109228021092F8
:100460002702B0DFC0CF1F920F920FB60F92112458
:100470008F939F938091270290912802823091055B
:1004800079F48091290290912A02895F9A4F909382
:100490002A0280932902109228021092270205C096
:1004A000019690932802809327029F918F910F903D
:1004B0000FBE0F901F9018951F920F920FB60F92BC
:1004C00011242F933F934F935F936F937F938F9359
:1004D0009F93AF93BF93EF93FF9380E090E0C6DDCF
:1004E00080919B01823079F028F4882341F081309B
:1004F00079F407C0833059F0843051F406C0F9DE36
:1005000007C0DFDE05C06ADE03C057DE01C0E0DEE3
:1005100080919E0190919F01019690939F018093FD
:100520009E0120919801309199018217930721F53E
:1005300010929F0110929E011092A50180919B0143
:1005400090E0019665E070E094D080939B0182304A
:1005500019F0843029F402C00FDF0EC020DF0CC078
:100560008FEF9FE090938900809388008FEF90E059
:100570009093990180939801FF91EF91BF91AF9172
:100580009F918F917F916F915F914F913F912F91AB
:100590000F900FBE0F901F90189540DF8FEF84B91A
:1005A0008AB987B915B818B81BB81BB810922B02B6
:1005B00010E000E2E1E0F0E0FF24F394459808B990
:1005C000612F70E09B01A4E0220F331FAA95E1F791
:1005D0002A553E4F80E090E0D901A80FB91F4D91F8
:1005E0005C915527A0912B02B0E04A175B0710F0F1
:1005F000409A01C04098419A4198029680319105F5
:1006000059F79B0174E0220F331F7A95E1F72A55C1
:100610003E4F80E090E0D901A80FB91F11964C9190
:10062000C42F40E0D42F40912B0250E0C417D507CF
:1006300010F0409A01C04098419A4198029680314A
:10064000910549F71BB8429A4298CF0102C0880F22
:10065000991F6A95E2F78BB91F5F177080912B0283
:100660008F3F19F4F0922B02A9CF8F5F80932B025A
:10067000A5CF97FB072E16F4009406D077FD08D07F
:100680000BD007FC05D03EF4909581959F4F0895BF
:10069000709561957F4F0895AA1BBB1B51E107C060
:1006A000AA1FBB1FA617B70710F0A61BB70B881F02
:1006B000991F5A95A9F780959095BC01CD01089591
:0406C000F894FFCFDC
:1006C400383E7FFF7E000000000000000018183C48
:1006D40000082240000000000000000000000000AC
:1006E4000000000000000000000000000000000006
:1006F40000000010000000000000001818000000B6
:100704000000182424180000002466000066240059
:100714000018004242001800244281000081422453
:10072400C3810000000081C318000081810000180B
:100734000000000F0300C0000C003000100008008F
:1007440020000400C000030000C30000003C0000BF
:080754003C42A581A599423C3D
:00000001FF
