:1000000019C033C032C031C030C02FC02EC02DC087
:100010002CC02BC02AC065C228C027C039C225C049
:1000200024C023C022C021C020C01FC01EC01DC0CC
:100030001CC01BC011241FBECFEFD2E0DEBFCDBF5E
:1000400011E0A0E0B1E0E2EEF6E002C005900D9212
:10005000A038B107D9F712E0A0E8B1E001C01D92C5
:10006000A031B107E1F7A4D23AC3CACFE9E8F1E081
:10007000918380839383828395838483978386830C
:1000800091878087938782879587848797878687DC
:10009000709622E0E930F20759F70895EF92FF9247
:1000A0000F931F93CF93DF93A9E8B1E040E050E0B6
:1000B000EE24E394F12C16C0C191D0E0C023D123EB
:1000C000CD2B29F0ED01C20FD31F79836883205F08
:1000D0003F4F2038310581F74F5F5F4F1296483010
:1000E000510559F08701042E02C0000F111F0A9418
:1000F000E2F7FC0120E030E0DFCFDF91CF911F91EC
:100100000F91FF90EF900895AF92BF92CF92DF9240
:10011000EF92FF920F931F93CF93DF93CDB7DEB78C
:1001200028970FB6F894DEBF0FBECDBF78876F83D8
:100130009B01235333433E832D839B012656364632
:100140003C832B83695979497A836983EE24E3944C
:10015000F12CEC0EFD1E00E010E0A82EB12C6BE09F
:10016000C62ED12CF701219131917F01C8018A0D52
:100170009B1DB6018DD243E0880F991F4A95E1F788
:10018000B90180509F4F8ADF0F5F1F4F0430110568
:1001900049F728960FB6F894DEBF0FBECDBFDF91AA
:1001A000CF911F910F91FF90EF90DF90CF90BF9074
:1001B000AF900895E0910D02F0910E0269E871E0B0
:1001C00020E030E01DC02730310541F02115310518
:1001D00029F08730910511F0009729F4DB01A40F75
:1001E000B51FED93FC930196405F5F4F88309105FA
:1001F00051F72F5F3F4F6E5F7F4F2830310529F059
:1002000040E050E080E090E0DECF089580918201F0
:100210008A3019F41092820103C08F5F80938201AB
:1002200060910D0270910E02809182016DCF2F922C
:100230003F924F925F926F927F928F929F92AF9276
:10024000BF92CF92DF92EF92FF920F931F93CF93C3
:10025000DF93A0900902B12C40900D0250900E0245
:10026000C9E8D1E0212C312C35017CE1872E912C7D
:1002700001E010E020E030E020C0FC01419151910C
:1002800061917191CF014C215D216E217F21452B20
:10029000462B472B31F0AE014A0F5B1FFA0151820A
:1002A00040825096A038B10541F7FFEF2F1A3F0A60
:1002B000229688E02816310499F0C101860D971D19
:1002C000B401E6D16801790104C0CC0CDD1CEE1C40
:1002D000FF1C8A95D2F788E591E0A0E0B0E0CDCF91
:1002E000C50101966CE170E0D3D180930902DF91E2
:1002F000CF911F910F91FF90EF90DF90CF90BF9023
:10030000AF909F908F907F906F905F904F903F90B5
:100310002F90089560910D0270910E0288E791E090
:10032000BDCE9091860180918501913041F4873056
:1003300021F41092860185E00AC08F5F08C0811108
:1003400005C081E08093860182E001C081508093E6
:1003500085019091830180910A02913041F48730A8
:1003600021F41092830186E009C08F5F07C08111DC
:1003700004C081E08093830101C0815080930A0210
:1003800019DF80918501E0910A0298E0E99FF00170
:100390001124E80FF11DEE0FFF1FE757FE4F8FEFFF
:1003A00090E0918380830895F8948FEF92E090938A
:1003B00089008093880010928500109284007894C0
:1003C00080E092E090938101809380010895F894F9
:1003D00082E292E1909389008093880010928500D8
:1003E0001092840078948FEF90E090938101809335
:1003F00080010895F89414BC15BCEEE6F0E010827C
:1004000016BC8FEF87BD80818260808385B58D604B
:1004100085BD78940895F89410928000E1E8F0E0AA
:100420001082AFE6B0E01C9210928500109284001A
:100430008FEF9FE090938900809388008C91826079
:100440008C9380818C6080837894089580E090E024
:100450000DDE83E080938401109288011092870161
:1004600081E08093850110920A0210928601109219
:10047000830110920E0210920D0210920C02109243
:100480000B021092820110920902B4DFC4DF9FCFE9
:100490001F920F920FB60F9211248F939F9380910A
:1004A0000B0290910C028230910579F480910D023B
:1004B00090910E02895F9A4F90930E0280930D02E5
:1004C00010920C0210920B0205C0019690930C0240
:1004D00080930B029F918F910F900FBE0F901F90F2
:1004E00018951F920F920FB60F9211242F933F93DE
:1004F0004F935F936F937F938F939F93AF93BF932C
:10050000EF93FF9380E090E0B1DD80918401813032
:1005100041F028F0823039F0833041F406C001DF29
:1005200005C0F8DE03C083DE01C070DE8091870164
:100530009091880101969093880180938701209182
:100540008001309181018217930709F5109288018B
:10055000109287018091840190E001968370992721
:1005600080938401823019F0833029F402C01CDFAB
:100570000EC02DDF0CC08FEF9FE090938900809319
:1005800088008FEF90E09093810180938001FF912C
:10059000EF91BF91AF919F918F917F916F915F91FB
:1005A0004F913F912F910F900FBE0F901F90189574
:1005B0004DDF8FEF84B98AB987B915B818B81BB861
:1005C0001BB810920F0210E000E2E1E0F0E0FF241F
:1005D000F394459808B9612F70E09B01C4E0220FA5
:1005E000331FCA95E1F727573E4F80E090E0D901CD
:1005F000A80FB91F1E964D915C911F975527A0918A
:100600000F02B0E04A175B0710F0409A01C0409813
:10061000419A41980297803F4FEF940741F79B0121
:10062000B4E0220F331FBA95E1F727573E4F80E021
:1006300090E0D901A80FB91F1F964C91C42F40E03C
:10064000D42F40910F0250E0C417D50710F0409A04
:1006500001C04098419A41980297803F4FEF94071C
:1006600041F71BB8429A4298CF0102C0880F991FE8
:100670006A95E2F78BB91F5F177080910F028F3F69
:1006800019F4F0920F02A5CF8F5F80930F02A1CFD4
:1006900097FB072E16F4009406D077FD08D00BD0F8
:1006A00007FC05D03EF4909581959F4F0895709575
:1006B00061957F4F0895AA1BBB1B51E107C0AA1F7C
:1006C000BB1FA617B70710F0A61BB70B881F991FF3
:1006D0005A95A9F780959095BC01CD010895F8949D
:0206E000FFCF4A
:1006E2000000000000000000000000000000000008
:1006F20000000000000000000000001000000000E8
:10070200000000181800000000001824241800003F
:10071200002466000066240000180042420018000F
:100722002442810000814224C3810000000081C371
:1007320018000081810000180000000F0300C000B3
:100742000C0030001000080020000400C00003006C
:1007520000C30000003C00003C42A581A599423C38
:00000001FF
