:1000000025C03FC03EC03DC03CC03BC03AC039C027
:1000100038C037C036C0EFC534C033C0C3C531C0E7
:1000200030C02FC02EC02DC02CC02BC02AC029C06C
:1000300028C027C053C057C067C097C0D7C037C1BA
:1000400097C117C2B7C257C3E7C337C411241FBE35
:10005000CFEFD2E0DEBFCDBF12E0A0E0B1E0ECEE2A
:10006000FDE002C005900D92A032B107D9F712E071
:10007000A0E2B2E001C01D92A03BB107E1F71DD69E
:10008000B3C6BECFE9E2F2E091838083938382839B
:1000900095838483978386839187808793878287DC
:1000A0009587848797878687709622E0E93AF207DA
:1000B00059F708959B0123533343AB0146565646E7
:1000C000FB01E959F94990E001978C30910508F05E
:1000D00014C4865E9F4F8F939F9308957093700210
:1000E00060936F0208957093700260936F02709333
:1000F000600260935F02709362026093610270938A
:1001000072026093710208957093800260937F027F
:1001100070938202609381027093500260934F0249
:100120007093520260935102709364026093630271
:10013000709374026093730270935E0260935D0229
:1001400070936E0260936D023093600220935F02A1
:1001500030936202209361023093700220936F0209
:100160003093720220937102089570934E0260934F
:100170004D0270937E0260937D02709354026093EF
:100180005302709384026093830230938002209321
:100190007F02309382022093810230935002209399
:1001A0004F02309352022093510230936402209305
:1001B0006302309374022093730230935E022093A3
:1001C0005D0230936E0220936D0250936002409363
:1001D0005F02509362024093610250937002409319
:1001E0006F0250937202409371020895709340021F
:1001F00060933F02709342026093410270935C02ED
:1002000060935B0270936C0260936B027093900238
:1002100060938F02709392026093910270936602D2
:1002200060936502709376026093750230934E027C
:1002300020934D0230937E0220937D02309354022E
:1002400020935302309384022093830250938002C0
:1002500040937F0250938202409381025093500258
:1002600040934F02509352024093510250936402C4
:1002700040936302509374024093730250935E0262
:1002800040935D0250936E0240936D02F0936002C2
:10029000E0935F02F0936202E0936102F0937002D8
:1002A000E0936F02F0937202E093710208957093ED
:1002B0003C0260933B0270938C0260938B027093BC
:1002C00096026093950270934602609345023093C4
:1002D000400220933F023093420220934102309328
:1002E0005C0220935B0230936C0220936B0230938C
:1002F000900220938F0230939202209391023093C8
:100300006602209365023093760220937502509323
:100310004E0240934D0250937E0240937D025093D3
:100320005402409353025093840240938302F0930B
:100330008002E0937F02F0938202E0938102F093C7
:100340005002E0934F02F0935202E0935102F09377
:100350006402E0936302F0937402E0937302F093FB
:100360005E02E0935D02F0936E02E0936D020895E9
:1003700070932E0260932D027093340260933302C7
:1003800070934A0260934902709358026093570237
:1003900070937A0260937902709388026093870267
:1003A00070939E0260939D027093A4026093A302D7
:1003B00070933E0260933D02709344026093430247
:1003C00070934C0260934B027093560260935502F7
:1003D00070937C0260937B02709386026093850227
:1003E00070938E0260938D027093940260939302D7
:1003F00030933C0220933B0230938C0220938B027B
:100400003093960220939502309346022093450242
:100410005093400240933F02509342024093410266
:1004200050935C0240935B0250936C0240936B02CA
:100430005093900240938F02509392024093910206
:100440005093660240936502509376024093750282
:10045000F0934E02E0934D02F0937E02E0937D0212
:10046000F0935402E0935302F0938402E0938302EA
:10047000089570932A026093290270932C0260936E
:100480002B027093360260933502709338026093AA
:10049000370270933A026093390270934802609376
:1004A00047027093A8026093A7027093A60260931C
:1004B000A50270939C0260939B0270939A026093D2
:1004C0009902709398026093970270938A026093E6
:1004D000890230932E0220932D0230933402209310
:1004E000330230934A0220934902309358022093FA
:1004F000570230937A022093790230938802209336
:10050000870230939E0220939D023093A402209391
:10051000A30230933E0220933D0230934402209385
:10052000430230934C0220934B02309356022093A7
:10053000550230937C0220937B02309386022093F5
:10054000850230938E0220938D0230939402209383
:10055000930250933C0240933B0250938C02409391
:100560008B0250939602409395025093460240931B
:100570004502F0934002E0933F02F0934202E09381
:100580004102F0935C02E0935B02F0936C02E09313
:100590006B02F0939002E0938F02F0939202E0934B
:1005A0009102F0936602E0936502F0937602E09385
:1005B000750208957093300260932F027093320297
:1005C0006093310270935A026093590270936802EB
:1005D0006093670270936A02609369027093780275
:1005E000609377027093A00260939F027093A202BF
:1005F0006093A10230932A022093290230932C02A7
:1006000020932B0230933602209335023093380228
:100610002093370230933A022093390230934802F4
:10062000209347023093A8022093A7023093A6029A
:100630002093A50230939C0220939B0230939A0250
:1006400020939902309398022093970230938A0264
:100650002093890250932E0240932D02509334022E
:100660004093330250934A024093490250935802F8
:100670004093570250937A02409379025093880234
:100680004093870250939E0240939D025093A40290
:100690004093A30250933E0240933D025093440284
:1006A0004093430250934C0240934B0250935602A6
:1006B0004093550250937C0240937B0250938602F4
:1006C0004093850250938E0240938D025093940282
:1006D00040939302F0933C02E0933B02F0938C0230
:1006E000E0938B02F0939602E0939502F09346021A
:1006F000E093450208957093300260932F02709347
:1007000032026093310270935A02609359027093DF
:1007100068026093670270936A0260936902709343
:100720007802609377027093A00260939F027093A7
:10073000A2026093A10230932A02209329023093EF
:100740002C0220932B0230933602209335023093F3
:1007500038022093370230933A02209339023093C3
:100760004802209347023093A8022093A7023093B7
:10077000A6022093A50230939C0220939B02309303
:100780009A02209399023093980220939702309313
:100790008A022093890250932E0240932D02509397
:1007A00034024093330250934A02409349025093DB
:1007B00058024093570250937A0240937902509323
:1007C00088024093870250939E0240939D0250936B
:1007D000A4024093A30250933E0240933D025093E3
:1007E00044024093430250934C0240934B02509377
:1007F00056024093550250937C0240937B025093E3
:1008000086024093850250938E0240938D0250934E
:1008100094024093930208957093300260932F02E4
:10082000709332026093310270935A0260935902BE
:10083000709368026093670270936A026093690222
:1008400070937802609377027093A00260939F0286
:100850007093A2026093A10230932A02209329028E
:1008600030932C0220932B023093360220933502D2
:10087000309338022093370230933A0220933902A2
:1008800030934802209347023093A8022093A70296
:100890003093A6022093A50230939C0220939B02E2
:1008A00030939A02209399023093980220939702F2
:1008B00030938A02209389020895709330026093E6
:1008C0002F02709332026093310270935A02609348
:1008D0005902709368026093670270936A02609392
:1008E000690270937802609377027093A00260931C
:1008F0009F027093A2026093A1020895E091AD025D
:10090000F091AE0269E272E020E030E01DC02730D5
:10091000310541F02115310529F08730910511F09D
:10092000009729F4DB01A40FB51FED93FC9301960A
:10093000405F5F4F8830910551F72F5F3F4F6E5FEB
:100940007F4F2830310529F040E050E080E090E012
:10095000DECF0895809122028C3019F41092220289
:1009600003C08F5F809322026091AD027091AE024E
:10097000809122029FCBAF92BF92CF92DF92EF92F3
:10098000FF920F931F93CF93DF93C091A902AC2ED8
:10099000B12CC090AD02D090AE02E9E2F2E020E0CE
:1009A00030E075010CE110E019C0BC01640F751F47
:1009B000EB016881613031F4BF016A0F7B1FEB01ED
:1009C000D982C882445E5F4F5096403E510569F718
:1009D0002F5F3F4F32962830310561F0C9018E0DEF
:1009E0009F1DB801DAD1A0E0B0E040E050E08050B7
:1009F0009F4FDBCFC50101966CE170E0CED18093B3
:100A0000A902DF91CF911F910F91FF90EF90DF909E
:100A1000CF90BF90AF9008956091AD027091AE02FB
:100A200020EE31E049E252E019C0F901E80FF91F68
:100A3000E081E13039F4FC01EE0FFF1FE40FF51FF8
:100A40007183608301968830910579F7285F3F4F65
:100A5000405F5F4F82E02032380719F080E090E07D
:100A6000E4CF08959091260280912502913041F4BF
:100A7000873021F41092260285E00AC08F5F08C0FB
:100A8000811105C081E08093260282E001C081507F
:100A900080932502909123028091AA02913041F423
:100AA000873021F41092230286E009C08F5F07C0CF
:100AB000811104C081E08093230201C081508093A2
:100AC000AA021CDF80912502E091AA0298E0E99F2A
:100AD000F0011124E80FF11DEE0FFF1FE75DFD4F40
:100AE0008FEF90E0918380830895F8948FEF92E0E8
:100AF0009093890080938800109285001092840062
:100B0000789480E092E090932102809320020895EF
:100B1000F89414BC15BCEEE6F0E0108216BC8FEF22
:100B200087BD80818260808385B58D6085BD789426
:100B30000895F89410928000E1E8F0E01082AFE6AA
:100B4000B0E01C9210928500109284008FEF9FE01D
:100B500090938900809388008C9182608C9380812F
:100B60008C6080837894089580E090E08BDA82E056
:100B70008093240281E0809325021092AA021092B1
:100B80002602109223021092AE021092AD02109231
:100B9000AC021092AB02109222021092A902B8DFAE
:100BA000C8DFA3CF1F920F920FB60F9211248F931D
:100BB0009F938091AB029091AC028230910579F4C1
:100BC0008091AD029091AE02895F9A4F9093AE02F0
:100BD0008093AD021092AC021092AB0205C0019658
:100BE0009093AC028093AB029F918F910F900FBEB8
:100BF0000F901F9018951F920F920FB60F9211240D
:100C00002F933F934F935F936F937F938F939F9314
:100C1000AF93BF93EF93FF9380E090E033DA80913E
:100C20002402813041F028F0823039F0833041F4E1
:100C300006C018DF05C0F0DE03C09DDE01C08ADEFD
:100C40008091270290912802019690932802809328
:100C50002702209120023091210282179307E1F4AC
:100C600010922802109227028091240290E00196AF
:100C70008370992780932402823011F436DF0CC0F0
:100C80008FEF9FE090938900809388008FEF90E032
:100C90009093210280932002FF91EF91BF91AF9139
:100CA0009F918F917F916F915F914F913F912F9184
:100CB0000F900FBE0F901F90189556DF8FEF84B9DD
:100CC0008AB987B915B818B81BB81BB81092AF020B
:100CD00010E000E2E1E0F0E0FF24F394459808B969
:100CE000612F70E09B01D4E0220F331FDA95E1F70A
:100CF000275D3D4F80E090E0D901A80FB91F1E96F7
:100D00004D915C911F975527A091AF02B0E04A1713
:100D10005B0710F0409A01C04098419A41980297B1
:100D2000803F4FEF940741F79B01C4E0220F331F30
:100D3000CA95E1F7275D3D4F80E090E0D901A80F0B
:100D4000B91F1F964C91C42F40E0D42F4091AF02A1
:100D500050E0C417D50710F0409A01C04098419A5E
:100D600041980297803F4FEF940741F71BB8429A92
:100D70004298CF0102C0880F991F6A95E2F78BB99C
:100D80001F5F17708091AF028F3F19F4F092AF028E
:100D9000A5CF8F5F8093AF02A1CF97FB072E16F4EC
:100DA000009406D077FD08D00BD007FC05D03EF4A8
:100DB000909581959F4F0895709561957F4F089507
:100DC000AA1BBB1B51E107C0AA1FBB1FA617B70771
:100DD00010F0A61BB70B881F991F5A95A9F780958D
:0C0DE0009095BC01CD010895F894FFCF60
:100DEC0001010101000000000000000000000000F3
:100DFC0000000000000000000000000000000000E7
:100E0C0001010000000000000000000000000000D4
:100E1C0000000000000001010000000000000101C2
:100E2C0000000000000000000000000000000000B6
:100E3C0001010000000000000000000001000000A3
:100E4C000000000000000000000000010000000095
:100E5C000000000000000000000100000000000085
:100E6C000000000000000100000000000000000075
:100E7C000000000000000101000000000000000064
:100E8C000101000000000000000000000000000054
:100E9C000000000001010000000001010000000042
:100EAC000000000000000000000000000000000036
:100EBC000000010101010000000000000000000022
:100ECC000000010101010000000100000000010010
:100EDC000100010000010001010000000000000100
:100EEC0001000100000100010100000101000001EE
:100EFC0000010000000001000000010101010000E0
:00000001FF
